:020000040800F2
:1000000000100020E1010008B54900087542000811
:10001000B1490008370900088D6A00080000000097
:10002000000000000000000000000000614A00081D
:100030001114000800000000B94900089D4B000899
:10004000FB010008FB010008FB010008FB010008A0
:10005000FB010008FB010008FB010008FB01000890
:10006000FB010008FB010008FB010008FB01000880
:10007000FB010008FB010008FB010008FB01000870
:10008000FB010008FB010008FB010008FB01000860
:10009000FB010008FB010008FB010008FB01000850
:1000A000FB010008FB010008FB010008FB01000840
:1000B000FB0100082553000881530008FB010008DC
:1000C000FB010008FB010008FB010008FB01000820
:1000D000FB0100080D6A0008FB010008696A0008BE
:1000E000FB010008FB010008FB010008FB01000800
:1000F000FB010008FB010008FB010008FB010008F0
:10010000FB010008FB0100087D5A0008FB01000804
:10011000FB01000819610008D95A0008FB0100081A
:10012000FB010008FB010008FB010008FB010008BF
:10013000FB010008FB010008FB010008FB010008AF
:10014000FB010008FB010008FB010008FB0100089F
:10015000FB010008FB010008FB010008796A0008A8
:10016000FB010008FB010008FB010008FB0100087F
:10017000FB010008FB010008FB010008FB0100086F
:10018000FB010008FB010008296100083961000833
:10019000FB010008FB010008FB010008FB0100084F
:1001A000FB010008FB010008FB010008FB0100083F
:1001B000FB010008FB010008FB010008FB0100082F
:1001C000FB010008FB010008DFF810D000F076FB0F
:1001D00000480047D9A30008AFF3008000100020BA
:1001E0000648804706480047FEE7FEE7FEE7FEE7D1
:1001F000FEE7FEE7FEE7FEE7FEE7FEE7594C0008F4
:10020000C90100082DE9F05F0546002092469B4693
:1002100088460646814640241BE02846414647461C
:10022000224600F07CFA53465A46C01A914110D338
:1002300011461846224600F063FA2D1A67EB0108B2
:100240004F4622460120002100F05AFA17EB000920
:100250004E41201EA4F10104DFDC484631462A4607
:100260004346BDE8F09FD2B201E000F8012B491EE1
:10027000FBD270470022F6E710B513460A46044643
:100280001946FFF7F0FF204610BD2DE9FE4F8046CE
:1002900081EA0300C00F0C46009021F0004123F0DA
:1002A0000045B8EB0200A94105D2404621469046E0
:1002B0001C460B46024623F00040104347D0270D52
:1002C000C7F30A00C3F30A510290401A0190402874
:1002D0006BDAC3F3130040F4801B0098924620B100
:1002E0000023D2EB030A63EB0B0B01985946C0F1D4
:1002F0004002504600F004FA06460D465046594664
:10030000019A00F01CFA10EB08006141002487EA12
:10031000115284EAE7731A4340D0009A62B3019AFB
:10032000012A4FEA075215DC001B61EB02014FF076
:10033000004202EA0752CDE90042001C41F580115B
:1003400032462B4600F053FA03B0BDE8F08F40462A
:100350002146F9E7001B61EB0201001C41F5801307
:1003600000185B412018A2F5001747EB030140EA93
:10037000D570B6196D4111E06D084FEA360645EAB1
:10038000C0754FEA0752001B61EB0201001C41F5EA
:10039000801149084FEA30000019514132462B467E
:1003A00003B0BDE8F04F00F013BA009801224000FE
:1003B0000023D0EB020263EBE073009821464FEA82
:1003C000E074B8EB000061EB0401E9E783F000435F
:1003D0005BE781F0004158E72DE9FE4F81EA030415
:1003E00004F0004421F0004100944FF0000B23F092
:1003F000004350EA01045ED052EA03045BD0C3F329
:100400000A54C1F30A552C44A4F2F3340194A0FB1E
:100410000254C1F3130141F48011C3F3130343F4F5
:10042000801301FB024400FB034E840A970A44EA4E
:10043000815447EA8357A4FB076802958D0A05FBA0
:1004400007854FEA932C04FB0C542705029D4FEAC5
:10045000065847EA1637B5EB08056EEB070C870E12
:10046000920E47EA811742EA8312A7FB0201B6EB1C
:100470000B0164EB00042B0D43EA0C335E1844EBD4
:100480001C50DA465146E7FB0201C5F313044FEA5C
:100490000B3343EA14534FEA0432019C43EA060348
:1004A000A4F10C040294009CCDE900B400F09FF983
:1004B00003B0BDE8F08F00200146F9E72DE9F04DCB
:1004C00081EA030404F0004B21F0004514464FF08C
:1004D000000A23F0004150EA050220D054EA01024C
:1004E0001DD0C5F30A570246C5F31303C1F3130029
:1004F000C1F30A5640F4801543F48013A7EB0608B5
:10050000101BD64608F2FD3873EB050002D308F144
:10051000010801E092185B41B8F1000F03DA0020F6
:100520000146BDE8F08D00204FF480110646844658
:100530000EE0171B73EB050705D3121B63EB0503D6
:1005400006434CEA010C49084FEA300092185B411F
:1005500050EA0107EDD152EA030012D082EA04000A
:1005600083EA0501084305D0101BAB4106D20122E6
:10057000002306E000224FF0004302E06FF001028A
:1005800053101AEB06004CEB085110EB0A0041EB3C
:100590000B01BDE8F04D00F01BB90EB5C10F80EAAC
:1005A000E0700844CA07002140F233438DE80E0092
:1005B0000A460B4600F01BF903B000BD0EB540F231
:1005C000334102910021CDE900110A460B4600F0AB
:1005D0000EF903B000BD70B5C1F30A5201F0004539
:1005E0000024C1F3130140F2FF3341F480119A4219
:1005F00001DA002070BD40F233439A42A2F2334246
:1006000003DC524200F08BF800E090402C43F1D024
:10061000404270BD00F0004230F000400AD0C10DF1
:1006200001F56071C0F3160042EA0151C2084007AB
:1006300011437047002001467047000030B5041E8A
:1006400071F1000404DB4FF00044404264EB01010F
:10065000141E73F1000405DB1C464FF000435242A8
:1006600063EB04038B4208BF824230BD30B5041EE9
:1006700071F1000404DB4FF00044404264EB0101DF
:10068000141E73F1000405DB1C464FF00043524278
:1006900063EB0403994208BF904230BD01F0004370
:1006A00030B421F0004150EA010206D00A0DA2F553
:1006B0006072C1F31301002A02DC30BC00207047D5
:1006C000440F44EAC104C100E01830BC00EBC25042
:1006D00000F047B830B50B46014600202022012427
:1006E00009E021FA02F59D4205D303FA02F5491B00
:1006F00004FA02F52844151EA2F10102F1DC30BD16
:10070000202A04DB203A00FA02F1002070479140D1
:10071000C2F1200320FA03F3194390407047202AC6
:1007200004DB203A21FA02F00021704721FA02F39B
:10073000D040C2F120029140084319467047202A58
:1007400006DBCB17203A41FA02F043EAE07306E0F9
:1007500041FA02F3D040C2F1200291400843194609
:1007600070470029A8BF7047401C490008BF20F00F
:100770000100704710B4B0FA80FC00FA0CF050EAA7
:10078000010404BF10BC704749B1CCF1200421FA28
:1007900004F411FA0CF118BF012121430843A3EB23
:1007A0000C01CB1D4FEA00614FEA102042BF002030
:1007B00010BC704700EBC35010440029A4BF10BC0C
:1007C0007047401C490008BF20F0010010BC704772
:1007D00010B5141E73F1000408DA401C41F1000149
:1007E00092185B411A4301D120F0010010BD2DE9A0
:1007F000F04D92469B4611B1B1FA81F202E0B0FA97
:1008000080F220329046FFF77BFF04460F4640EA15
:100810000A0041EA0B0153465A46084313D01146D9
:1008200053EA010019D0C8F140025046FFF777FFA4
:1008300005460E46504659464246FFF761FF0843BB
:1008400005D0012004E020463946BDE8F08D0020A7
:10085000054346EAE0762C4337430A986305E40AE9
:10086000A0EB08000022FD0A44EA47540A3002D5F2
:1008700000200146E9E7010510196941DDE9084555
:1008800000196941BDE8F04DA2E7C1F30A52C1F376
:10089000130140F2FF3341F480119A4202DA002042
:1008A0000146704740F233439A42A2F2334202DCDF
:1008B0005242FFF734BFFFF723BF0000064C074D3D
:1008C00006E0E06840F0010394E807009847103420
:1008D000AC42F6D3FFF77CFC10D9000830D90008F1
:1008E00070B58C1810F8015B15F0070301D110F8F2
:1008F000013B2A1106D110F8012B03E010F8016B1F
:1009000001F8016B5B1EF9D12B0705D40023521EA1
:100910000DD401F8013BFAE710F8013BCB1A921C09
:1009200003E013F8015B01F8015B521EF9D5A14207
:10093000D8D3002070BD00BFFEE7000070B50020D6
:10094000FB490871002575E20AF072FD4FF46170F1
:1009500007F0D8FE0BF060FC0BF05EFC0BF05CFCCB
:100960000BF05AFC0BF058FC20E08021F14800F01D
:1009700031FF30B92021F04800F02CFF012800D1D0
:100980005CE29FEDEE1AF3EE040AB2EE0E0A0AF0F4
:10099000ABFD2021EA4800F01DFF10B90120E94914
:1009A0000870E3480079012800D100E0DDE700BFCE
:1009B0000020DF4908712021E14800F00BFF0128E9
:1009C00006D1E048007818B90220DF49087015E028
:1009D0002021DB4800F0FEFE18B90120DA4908703A
:1009E0000CE02021D64800F0F5FE012806D1D548BC
:1009F0000078012802D10320D3490870D24800783A
:100A0000012804D0022807D003280ED108E04FF4B3
:100A1000967007F077FE08E0C82007F073FE04E048
:100A20004FF4967007F06EFE00BF00BF9FEDC31A33
:100A3000DFEDC20A9FEDC10A0AF056FDC2480078F8
:100A4000012804D0022809D0032815D10DE00AF0AE
:100A500022FD4FF4487007F055FE0DE00AF011FD3D
:100A60004FF4487007F04EFE06E00AF01EFD4FF40A
:100A7000487007F047FE00BF00BF0BF0AFFBC82077
:100A800000F08EFDB0480078012804D002280FD075
:100A9000032827D119E09621052007F0D9FD01216F
:100AA000052007F0B5FD40F2DC5007F02BFE19E001
:100AB0009621342007F0CCFD0121342007F0A8FD59
:100AC00040F2DC5007F01EFE0CE09621072007F0F4
:100AD000BFFD0121072007F09BFD40F6980007F0BD
:100AE00011FE00BF00BF0BF0FFFBC82007F00AFE9D
:100AF00000244FF496709549086008E0944803F08C
:100B00005DFF00B904E09148006800B900E0F5E736
:100B100000BF8E48006800B98BE18EA005F0B8FFD9
:100B20008B48447821468DA005F0B2FF0BF056FBB0
:100B30004FF4FA7000F034FD222C5ED008DC112C4A
:100B400035D0122C6CD0132C7DD0212C1BD11BE066
:100B5000232C79D0312C04D0322C3BD0332CF5D13E
:100B600073E0AF21082007F073FD0121082007F092
:100B70004FFD4FF4966007F0C5FD0BF09BFB4FF463
:100B8000967007F0BFFD99E0AF21092007F060FDE6
:100B90000121092007F03CFD4FF4966007F0B2FDFB
:100BA0000BF088FB4FF4967007F0ACFD86E0AF21A8
:100BB0000A2007F04DFD01210A2007F029FD4FF41E
:100BC000966007F09FFD0BF075FB4FF4967007F0F1
:100BD00099FD73E0AF210B2007F03AFD01210B20B6
:100BE00007F016FD4FF4966007F08CFD0BF062FBEA
:100BF0004FF4967007F086FD60E0AF210C2007F0FF
:100C000027FD01210C2007F003FD4FF4966007F04B
:100C100079FD0BF04FFB4FF4967007F073FD4DE03C
:100C2000AF210D2007F014FD01210D2007F0F0FC8D
:100C30004FF4966007F066FD0BF03CFB4FF49670A6
:100C400007F060FD3AE026E012E0AF21382007F01F
:100C5000FFFC0121382007F0DBFC4FF4966007F021
:100C600051FD0BF027FB4FF4967007F04BFD25E08C
:100C7000AF210F2007F0ECFC01210F2007F0C8FC8A
:100C80004FF4966007F03EFD0BF014FB4FF49670A6
:100C900007F038FD12E06421102007F0D9FC012193
:100CA000102007F0B5FC4FF4E16007F02BFD0BF0CE
:100CB00001FB4FF4967007F025FD00BF00BF232C09
:100CC00005D0122C03D0322C01D0212C56D1122C5D
:100CD00013D0212C44D0232C02D0322C4DD119E03A
:100CE000AF21112007F0B4FC0121112007F090FC86
:100CF0004FF4487007F006FD3FE0AF21122007F0E7
:100D0000A7FC0121122007F083FC4FF4487007F084
:100D1000F9FC32E0AF21132007F09AFC01211320E7
:100D200007F076FC4FF4487007F0ECFC25E000007B
:100D3000E8020020000C0240000802400000000011
:100D40000004024018010020190100209002002038
:100D5000E00B00206E623636360A00002564000083
:100D6000AF21142007F074FC0121142007F050FC7F
:100D70004FF4487007F0C6FC00BF00BF312C07D00D
:100D8000112C05D0222C03D0332C01D0132C4ED1A2
:100D9000222C24D004DC112C14D0132C46D138E0A2
:100DA000312C02D0332C41D126E0AF21182007F09E
:100DB0004FFC0121182007F02BFC4FF4487007F07E
:100DC000A1FC33E0AF21192007F042FC01211920DA
:100DD00007F01EFC4FF4487007F094FC26E0AF21AA
:100DE0001A2007F035FC01211A2007F011FC4FF4FE
:100DF000487007F087FC19E0AF211B2007F028FCA2
:100E000001211B2007F004FC4FF4487007F07AFC26
:100E10000CE0AF211C2007F01BFC01211C2007F077
:100E2000F7FB4FF4487007F06DFC00BF00BF0024D3
:100E300000BF6D1C022DFFF687AD00BF2AE01FED3D
:100E4000411ADFED160AB8EE080A0AF04DFB8021C0
:100E5000134800F0BFFCE8B92021124800F0BAFCAA
:100E6000012817D11FED4B1A5FED4C0A1FED4D0AFB
:100E70000AF03AFB642007F045FC9621002007F0B9
:100E8000E7FB0121002007F0C3FB4FF4487007F097
:100E900039FC00E0D3E700BF70BD0000000048420D
:100EA000000C02400008024070B50020FC490871A7
:100EB000002577E20AF0BCFA4FF47A7007F022FCC2
:100EC0000BF0AAF90BF0A8F90BF0A6F90BF0A4F9B6
:100ED0000BF0A2F920E08021F24800F07BFC30B951
:100EE0002021F14800F076FC012800D15EE29FED60
:100EF000EF1AF3EE040AB2EE0E0A0AF0F5FA202118
:100F0000EB4800F067FC10B90120EA490870E4489A
:100F10000079012800D100E0DDE700BF0020E049B2
:100F200008712021E24800F055FC012806D1E14873
:100F3000007818B90220E049087015E02021DC484B
:100F400000F048FC18B90120DB4908700CE02021B2
:100F5000D74800F03FFC012806D1D6480078012888
:100F600002D10320D4490870D3480078012804D066
:100F7000022806D003280ED108E0C82007F0C2FBE3
:100F800009E04FF4A07007F0BDFB04E04FF4E170FE
:100F900007F0B8FB00BF00BF9FEDC41ADFEDC30A26
:100FA0009FEDC20A0AF0A0FAC3480078012804D0D5
:100FB000022809D0032815D10DE00AF044FA4FF4B5
:100FC000487007F09FFB0DE00AF047FA4FF44870B5
:100FD00007F098FB06E00AF04AFA4FF4487007F071
:100FE00091FB00BF00BF0BF0F9F84FF4FA7000F06E
:100FF000D7FAB1480078012804D002280FD003287E
:1010000027D119E09621052007F022FB01210520B8
:1010100007F0FEFA40F2DC5007F074FB19E096216D
:10102000062007F015FB0121062007F0F1FA40F237
:10103000DC5007F067FB0CE09621072007F008FB67
:101040000121072007F0E4FA40F6980007F05AFB68
:1010500000BF00BF0BF048F94FF4FA7007F052FBE5
:1010600000244FF496709549086008E0944803F016
:10107000A5FC00B904E09148006800B900E0F5E77C
:1010800000BF8E48006800B98BE18EA005F000FD1E
:101090008B48447821468DA005F0FAFC0BF09EF8B1
:1010A0004FF4FA7000F07CFA222C5ED008DC112C90
:1010B00035D0122C6CD0132C7DD0212C1BD11BE0F1
:1010C000232C79D0312C04D0322C3BD0332CF5D1C9
:1010D00073E0AF21082007F0BBFA0121082007F0D8
:1010E00097FA4FF4966007F00DFB0BF0E3F84FF41E
:1010F000FA7007F007FB99E0AF21092007F0A8FA82
:101100000121092007F084FA4FF4966007F0FAFAFB
:101110000BF0D0F84FF4FA7007F0F4FA86E0AF2144
:101120000A2007F095FA01210A2007F071FA4FF41E
:10113000966007F0E7FA0BF0BDF84FF4FA7007F08D
:10114000E1FA73E0AF210B2007F082FA01210B20B6
:1011500007F05EFA4FF4966007F0D4FA0BF0AAF8A5
:101160004FF4FA7007F0CEFA60E0AF210C2007F0E0
:101170006FFA01210C2007F04BFA4FF4966007F04C
:10118000C1FA0BF097F84FF4FA7007F0BBFA4DE094
:10119000AF210D2007F05CFA01210D2007F038FA8D
:1011A0004FF4966007F0AEFA0BF084F84FF4FA7043
:1011B00007F0A8FA3AE026E012E0AF210E2007F08F
:1011C00047FA01210E2007F023FA4FF4966007F04A
:1011D00099FA0BF06FF84FF4FA7007F093FA25E0E4
:1011E000AF210F2007F034FA01210F2007F010FA89
:1011F0004FF4966007F086FA0BF05CF84FF4FA7043
:1012000007F080FA12E06421102007F021FA012192
:10121000102007F0FDF94FF4E16007F073FA0BF0CE
:1012200049F84FF4FA7007F06DFA00BF00BF232CA5
:1012300005D0122C03D0322C01D0212C56D1122CE7
:1012400013D0212C44D0232C02D0322C4DD119E0C4
:10125000AF21112007F0FCF90121112007F0D8F986
:101260004FF4487007F04EFA3FE0AF21122007F02C
:10127000EFF90121122007F0CBF94FF4487007F085
:1012800041FA32E0AF21132007F0E2F901211320E7
:1012900007F0BEF94FF4487007F034FA25E000007B
:1012A000E8020020000C024000080240000000009C
:1012B00000040240180100201901002090020020C3
:1012C000E00B00206E623636360A0000256400000E
:1012D000AF21142007F0BCF90121142007F098F980
:1012E0004FF4487007F00EFA00BF00BF312C07D052
:1012F000112C05D0222C03D0332C01D0132C4ED12D
:10130000222C24D004DC112C14D0132C46D138E02C
:10131000312C02D0332C41D126E0AF21182007F028
:1013200097F90121182007F073F94FF4487007F07E
:10133000E9F933E0AF21192007F08AF901211920DA
:1013400007F066F94FF4487007F0DCF926E0AF21AA
:101350001A2007F07DF901211A2007F059F94FF4FE
:10136000487007F0CFF919E0AF211B2007F070F9A2
:1013700001211B2007F04CF94FF4487007F0C2F927
:101380000CE0AF211C2007F063F901211C2007F0BD
:101390003FF94FF4487007F0B5F900BF00BF0024D3
:1013A00000BF6D1C022DFFF685AD00BF26E01FEDCE
:1013B000411ADFED140AB8EE080A0AF095F8802108
:1013C000114800F007FAC8B92021104800F002FACD
:1013D000012813D11FED4B1A5FED4C0A1FED4D0A8A
:1013E0000AF082F8642007F08DF90121002007F04F
:1013F0000FF94FF4FA7007F085F900E0D7E700BF66
:1014000070BD000000004842000C0240000802408D
:10141000704772B600BFFEE7017869B9012101701B
:101420000D49496A0D4A126842F2107303FB02111A
:10143000816041600021C160816841600649496A5C
:10144000064A126842F2107303FB02118160D0E970
:101450000121891AC1607047001000408C020020F1
:101460008178012914D1417A090209B2027A114323
:1014700000EE101AF8EEC00ADFED061A80EEA11A8F
:10148000DFED050A61EE200A0449C1ED030A00BF41
:10149000704700000000004700003443F40A0020B9
:1014A000094909782C290ED10749497812290AD10E
:1014B00005498978022906D1034909795B2902D1B6
:1014C0000149C97801717047F002002070B50446E7
:1014D000A56D00F087F9064694F83500022808D07B
:1014E0008020606500BF002084F8340000BF012028
:1014F00070BD2068006820F0160021680860206830
:10150000406920F0800021684861206C08B9A06C17
:1015100028B12068006820F0080021680860206871
:10152000006820F001002168086010E000F05AF91E
:10153000801B05280BD920206065032084F8350026
:1015400000BF002084F8340000BF0320D0E72068EB
:10155000006800F001000028E8D194F85C103F20FA
:101560008840A860012084F8350000BF002084F87E
:10157000340000BF00BFBBE7014691F835000228E8
:1015800003D08020486501207047052081F8350090
:101590000868006820F001000A6810600020F3E786
:1015A00070B5044600F01EF906462546681C10B1C9
:1015B00004480078054400BF00F014F9801BA842DD
:1015C000FAD370BD10000020F8B502460B4600218A
:1015D00000250024002000BFDEE0012606FA01F508
:1015E0001E6806EA0504AC4272D11E7906F00306B5
:1015F000012E04D01E7906F00306022E13D1906846
:101600004F000326BE40B0434F00DE68BE4030436B
:101610009060506801268E40B0431E79C6F30016D4
:101620008E40304350601E7906F00306032E09D029
:10163000D0684F000326BE40B0434F009E68BE40B6
:101640003043D0601E7906F00306022E13D1CF0876
:1016500002F1200656F827004E07F70E0F26BE406F
:10166000B0434F07FF0E1E69BE403043CF0802F162
:10167000200646F8270010684F000326BE40B043FE
:101680001E7906F003064F00BE40304310605E68CE
:1016900006F44036002E7ED000BF414E366846F438
:1016A00080463F4F3E603E46366806F480460096D0
:1016B00000BF00BF3B4E8F0856F827008E07370F3C
:1016C0000F26BE40B043384EB24202D100262EE073
:1016D00061E0364EB24201D1012628E0344EB242DA
:1016E00001D1022623E0334EB24201D103261EE08F
:1016F000314EB24201D1042619E0304EB24201D13E
:10170000052614E02E4EB24201D106260FE02D4EE2
:10171000B24201D107260AE02B4EB24201D108267F
:1017200005E02A4EB24201D1092600E00A268F07C1
:101730003F0FBE4030431B4E8F0846F82700244E13
:101740003068A0435E6806F4801606B12043204E40
:101750003060361D3068A0435E6806F4001606B19E
:1017600020431B4E361D3060194E361F3068A04393
:101770005E6806F4003606B12043154E361F306011
:10178000361F3068A0435E6806F4803606B12043F9
:101790000F4E083E3060491C1029FFF41EAFF8BD03
:1017A0004438024008380140000002400004024072
:1017B00000080240000C02400010024000140240E9
:1017C00000180240001C0240002002400024024099
:1017D000083C0140024613690B400BB1012000E0B8
:1017E0000020704701480068704700000800002092
:1017F00003480068034909780844014908607047B4
:10180000080000201000002010B5032000F09CF814
:101810000F2000F005F800F029F8002010BD0000AE
:1018200070B504460E4800784FF47A71B1FBF0F0C1
:101830000C490968B1FBF0F5284601F01DF808B124
:10184000012070BD102C07D200222146501E00F04E
:101850003DF80548046001E00120F2E70020F0E7D0
:1018600010000020140000200C00002008B500BF6C
:101870000D48006840F080500B4908600846006839
:1018800000F08050009000BF00BF00BF081D00683E
:1018900040F48040091D08600846006800F480405C
:1018A000009000BF00BF08BD403802400146084616
:1018B000002809DB00F01F0301229A4043099B0026
:1018C00003F1E023C3F8002100BF70472DE9F05F6A
:1018D00080460D461646002705F002F907463946B0
:1018E0002A46334601F00700C0F1070ABAF1040F97
:1018F00002D94FF0040A01E0C0F1070AD14600F115
:10190000040ABAF1070F02D24FF0000A01E0A0F179
:10191000030AD4464FF0010A0AFA09FAAAF1010AA9
:101920000AEA020A0AFA0CFA4FF0010B0BFA0CFB56
:10193000ABF1010B0BEA030B4AEA0B0421464046CC
:1019400005F0D6F8BDE8F09F00BF00F00702064B97
:1019500019684FF6FF031940044B0B4343EA022179
:10196000014B196000BF70470CED00E00000FA0564
:1019700038B5002400BF2048006840F080501E4960
:1019800008600846006800F08050009000BF00BF6B
:101990001A48006840F4803018490860FFF722FFB9
:1019A000044607E0FFF71EFF001BB0F57A7F01D960
:1019B000032038BD1148406800F48030B0F5803F06
:1019C000F0D10E48006840F400300C490860FFF781
:1019D00009FF044607E0FFF705FF001BB0F57A7F1B
:1019E00001D90320E5E70548406800F40030B0F570
:1019F000003FF0D10020DCE740380240007000409A
:101A00002DE9F8430446002600250027A846A946EC
:101A1000207800F0010088B100BFFE48006820F483
:101A20000000FC49086008460068616B0843F949FA
:101A3000086000BF606B08B94FF00108206800F42F
:101A40000020B0F5002F13D1F2488430006820F454
:101A50004010E16B0843EF4984310860E06BB0F55A
:101A6000801F01D14FF00108E06B08B94FF0010968
:101A7000206800F48010B0F5801F13D1E548843051
:101A8000006820F44000216C0843E249843108607A
:101A9000206CB0F5800F01D14FF00108206C08B91F
:101AA0004FF00109206800F08070B0F1807F01D113
:101AB0004FF00108207800F02000202870D100BFEE
:101AC000D4483830006840F08050D249383108603E
:101AD0000846006800F08050009000BF00BFCE486C
:101AE000006840F48070CC490860FFF77BFE064632
:101AF00007E0FFF777FE801B642802D90320BDE8CA
:101B0000F883C548006800F480700028F1D0C1480F
:101B10006830006800F4407585B3208E00F4407092
:101B2000A8422BD0BB486830006820F44075B94803
:101B30006830006840F48030B64968310860084673
:101B4000006820F48030086008460560006800F0F6
:101B5000010098B1FFF746FE064608E0FFF742FE97
:101B6000801B41F28831884201D90320C7E7A94888
:101B700068300068C0F340000028EFD000BF208E1E
:101B800000F44070B0F5407F0BD1A248006820F40B
:101B9000F810A24A216B114008439E49086006E0F4
:101BA00010E09C48006820F4F8109A4908609948B1
:101BB00068300068218EC1F30B01084395496831F4
:101BC000086000BF207800F01000102810D100BF7E
:101BD00090488430006820F080708E49843108601D
:101BE00008460068A16B08438A498431086000BF39
:101BF000208800F48040B0F5804F09D185488830B6
:101C0000006820F44030616E0843824988310860E2
:101C1000208800F40040B0F5004F09D17D4888309D
:101C2000006820F44020A16E08437A49883108609A
:101C3000206800F48030B0F5803F09D175488830C5
:101C4000006820F44010E16E084372498831086052
:101C5000206800F40030B0F5003F09D16D488830AD
:101C6000006820F44000216F08436A498831086009
:101C7000207800F04000402809D16648883000688C
:101C800020F00300616C08436249883108602078C5
:101C900000F08000802809D15E488830006820F07C
:101CA0000C00A16C08435B4988310860208800F46F
:101CB0008070B0F5807F09D156488830006820F0E8
:101CC0003000E16C0843534988310860208800F4F3
:101CD0000070B0F5007F09D14E488830006820F0D0
:101CE000C000216D08434B4988310860208800F40A
:101CF0008060B0F5806F09D146488830006820F4D4
:101D00004070616D0843434988310860208800F4C1
:101D10000060B0F5006F09D13E488830006820F4BB
:101D20004060A16D08433B4988310860208800F479
:101D30008050B0F5805F09D136488830006820F4C3
:101D40004050E16D0843334988310860208800F431
:101D50000050B0F5005F09D12E488830006820F4AB
:101D60004040216E08432B4988310860206800F408
:101D70008000B0F5800F09D126488830006820F037
:101D80008060A16F0843234988310860206800F40F
:101D90000010B0F5001F0FD11E488830006820F0F9
:101DA0000060E16F08431B4988310860E06FB0F1C3
:101DB000006F01D14FF00109207800F008000828D9
:101DC00001D14FF00109206800F48020B0F5802F88
:101DD00009D110488830006820F04070616F0843D6
:101DE0000C4988310860206800F40000B0F5000F4D
:101DF0000AD108488830006820F08050D4F880105C
:101E00000843044988310860B8F1010F0DD02068FB
:101E100006E000000838024000700040FFFCFF0FA1
:101E200000F00070B0F1007F7DD1AD48006820F077
:101E30008060AB490860FFF7D5FC064606E0FFF777
:101E4000D1FC801B642801D9032058E6A44800680F
:101E5000C0F3C0600028F2D1207800F00100B8B1D2
:101E6000606BA8B99E4884300068C0F301459C4867
:101E700084300068C0F303676068800140EA054071
:101E800040EA0761207A41EA007095498431086090
:101E9000206800F40020B0F5002F03D1E06BB0F50E
:101EA000801F09D0206800F48010B0F5801F24D175
:101EB000206CB0F5800F20D1894884300068C0F3D1
:101EC0000145874884300068C0F30277606880016C
:101ED00040EA0541207B41EA006040EA0770804902
:101EE000843108607E488C30006820F01F00616AF1
:101EF000491E08437A498C310860206800F08070E0
:101F0000B0F1807F17D1764884300068C0F3036554
:101F1000734884300068C0F3027760688101208ACA
:101F200041EA004000E031E040EA056040EA077025
:101F30006B4984310860206800F00070B0F1007FC8
:101F40000DD160688101208A41EA0041207B41EA8D
:101F50000061207A41EA007061498431086060487C
:101F6000006840F080605E490860FFF73BFC064671
:101F700006E0FFF737FC801B642801D90320BEE58B
:101F800057480068C0F3C0600028F2D0B9F1010FD3
:101F90007ED15348006820F0805051490860FFF717
:101FA00021FC064606E0FFF71DFC801B642801D9D2
:101FB0000320A4E54A480068C0F340700028F2D12D
:101FC000206800F40020B0F5002F01D1E06B38B19B
:101FD000206800F48010B0F5801F22D1206C00BB77
:101FE0003F4888300068C0F301453D4888300068AC
:101FF000C0F302776069800140EA0541207E41EA32
:10200000006040EA0770364988310860081D0068A2
:1020100020F4F851A06A401E41EA002030498C317A
:102020000860206800F40010B0F5001F19D1E06FBF
:10203000B0F1006F15D12A4888300068C0F30365FD
:10204000274888300068C0F3027760698101208CDE
:1020500041EA004040EA056040EA077020498831C3
:102060000860207800F00800082820D11C4888303B
:102070000068C0F303651A4888300068C0F3014760
:102080006069800140EA074040EA0561207F00E086
:1020900024E041EA0070124988310860081D006898
:1020A00020F44030E16A08430D498C3108600C4847
:1020B000006840F080500A490860FFF793FB06462D
:1020C00006E0FFF78FFB801B642801D9032016E58B
:1020D00003480068C0F340700028F2D000200EE5ED
:1020E0000038024070B504460D4600260CB90120A8
:1020F00070BD5C48006800F00F00A8420ED259483D
:10210000006820F00F002843564908600846006820
:1021100000F00F00A84201D00120E9E7207800F08C
:10212000020002281DD1207800F00400042805D107
:102130004D48006840F4E0504B490860207800F0BA
:102140000800082805D14848006840F46040464926
:1021500008604548006820F0F000A1680843424943
:102160000860207800F0010090B36068012807D172
:102170003D4808380068C0F34040A0B90120B7E7E7
:102180006068022807D1384808380068C0F340600A
:1021900048B90120ACE7344808380068C0F3400073
:1021A00008B90120A4E73048006820F00300616806
:1021B00008432D490860FFF715FB064609E0FFF7C5
:1021C00011FB801B41F28831884202D903208FE73E
:1021D00007E02548006800F00C006168B0EB810F53
:1021E000EDD12048006800F00F00A8420ED91D482C
:1021F000006820F00F0028431A490860084600686C
:1022000000F00F00A84201D0012071E7207800F013
:102210000400042807D11448006820F4E050E16865
:10222000084311490860207800F00800082808D108
:102230000D48006820F46040216940EAC1000A4965
:10224000086000F03FF808490968C1F30311074A24
:10225000515CC8400649086006480068FFF7E0FA8C
:10226000002045E7003C02400838024064D60008E0
:10227000140000200C000020014800687047000096
:102280001400002000B5FFF7F7FF04490968C1F307
:102290008221034A515CC84000BD0000083802405A
:1022A00074D6000800B5FFF7E7FF04490968C1F3D9
:1022B0004231034A515CC84000BD0000083802406A
:1022C00074D600082DE9F047002400250026A14619
:1022D0002548006800F00C0020B1042805D008282B
:1022E0003AD105E0DFF8849039E0DFF8849036E0F9
:1022F0001D48001F006800F03F041B48001F0068D5
:1023000000F4800078B11A481749091F0968C1F321
:102310008811A0FB01700146224600233846FDF7D4
:1023200071FF05460EE011480F49091F0968C1F306
:102330008811A0FB01700146224600233846FDF7B4
:1023400061FF05460848001F0068C0F30140401CBB
:102350004600B5FBF6F902E0DFF8109000BF00BFC1
:102360004846BDE8F0870000083802400024F40029
:1023700000127A00F8B5044600270CB90120F8BD18
:10238000207800F00100002871D0F948006800F0C2
:102390000C0004280DD0F648006800F00C00082856
:1023A00013D1F348001F006800F48000B0F5800FDF
:1023B0000BD1EF4808380068C0F34040002869D0CE
:1023C0006068002866D10120D9E700BF6068B0F5D9
:1023D000803F08D1E6480838006840F48030E4497E
:1023E000083908602EE0606868B9E148083800687C
:1023F00020F48030DE49083908600846006820F47F
:10240000802008601EE06068B0F5A02F0DD1D8488C
:102410000838006840F48020D5490839086008462B
:10242000006840F4803008600CE0D148083800684B
:1024300020F48030CE49083908600846006820F44E
:102440008020086000BF606890B1FFF7CBF90546B7
:1024500006E0FFF7C7F9401B642801D903208EE787
:10246000C34808380068C0F340400028F1D011E0AC
:10247000FFF7B8F9054606E0FFF7B4F9401B6428FA
:1024800001D903207BE7BA4808380068C0F3404010
:102490000028F1D1207800F00200022869D1B44868
:1024A000006800F00C0058B1B148006800F00C0062
:1024B00008281CD1AE48001F006800F48000B0B9A5
:1024C000AB4808380068C0F3400020B1E06801283C
:1024D00001D0012053E7A6480838006820F0F80032
:1024E000216940EAC100A2490839086041E0E0687A
:1024F00028B39F480838006840F001009C4908391B
:102500000860FFF76FF9054606E0FFF76BF9401B1F
:10251000022801D9032032E7954808380068C0F343
:1025200040000028F1D092480838006820F0F800F8
:10253000216940EAC1008E490839086019E08C48D9
:102540000838006820F00100894908390860FFF761
:1025500049F9054606E0FFF745F9401B022801D975
:1025600003200CE7824808380068C0F340000028C8
:10257000F1D1207800F00800082836D16069D0B188
:102580007B486C30006840F0010079496C3108608C
:10259000FFF728F9054606E0FFF724F9401B02285B
:1025A00001D90320EBE672486C300068C0F34000AC
:1025B0000028F1D019E06E486C30006820F001006E
:1025C0006B496C310860FFF70DF9054606E0FFF72F
:1025D00009F9401B022801D90320D0E664486C3079
:1025E0000068C0F340000028F1D1207800F004001A
:1025F000042874D15E483830006800F0805080B9FB
:1026000000BF5B483830006840F08050584938318E
:1026100008600846006800F08050009000BF00BFCE
:1026200001275448006800F48070B0B95148006830
:1026300040F480704F490860FFF7D4F8054606E083
:10264000FFF7D0F8401B642801D9032097E64948DA
:10265000006800F480700028F2D000BFA068012854
:1026600008D143486830006840F0010040496831B3
:1026700008602DE0A06868B93D486830006820F027
:1026800001003B49683108600846006820F00400FA
:1026900008601DE0A06805280DD135486830006845
:1026A00040F004003249683108600846006840F094
:1026B000010008600CE02E486830006820F001003E
:1026C0002B49683108600846006820F00400086063
:1026D00000BFA068A8B1FFF785F8054609E02EE025
:1026E000FFF780F8401B41F28831884201D903206E
:1026F00045E61F4868300068C0F340000028EFD06E
:1027000013E0FFF76FF8054608E0FFF76BF8401B92
:1027100041F28831884201D9032030E614486830FC
:102720000068C0F340000028EFD1012F07D1104806
:102730003830006820F080500D4938310860A069B9
:10274000002852D00A48006800F00C00082865D024
:10275000A06902284AD106480838006820F0807035
:10276000034908390860FFF73DF805460BE0000013
:102770000838024000700040FFF734F8401B022880
:1027800001D90320FBE53B480068C0F34060002806
:10279000F2D1E06940F00050216A0843616A40EAE2
:1027A00081110122A06AC2EB500041EA00412C20B5
:1027B000005D41EA00602F49091D0860081F00689C
:1027C00040F08070091F0860FFF70CF8054606E02E
:1027D000FFF708F8401B022801D90320CFE5254860
:1027E0000068C0F340600028F2D040E02148006853
:1027F00020F080701F490860FEF7F4FF054606E0F0
:10280000FEF7F0FF401B022801D90320B7E5194865
:102810000068C0F340600028F2D128E01548001D90
:102820000668A069012820D006F48001E069814291
:102830001BD106F03F01206A814216D147F6C070D5
:102840003040616AB0EB811F0FD106F440310122A4
:10285000A06AC2EB5000B1EB004F06D106F07061E8
:102860002C20005DB1EB006F01D0012087E5002036
:1028700085E500000038024070B504462546681E14
:10288000B0F1807F01D301200FE0681E4FF0E021FE
:1028900048610F214FF0FF3004F02AF900204FF07B
:1028A000E021886107200861002070BD70477047F3
:1028B0007047000010B50346002200BF93F83C00AB
:1028C000012801D1022010BD012083F83C0000BF87
:1028D00022F0FF00CC6840EA040222F440708C68C9
:1028E00040EA040222F480604C6840EA040222F4C8
:1028F00000600C6840EA040222F480500C6940EA4F
:10290000040222F400504C6940EA040222F48040A0
:102910008C6A40EA040222F470200C8B40EA0442E4
:102920000F4C1868A04203D00E4C1868A0420ED17C
:1029300022F470008C8C40EA045222F08070CC6942
:1029400040EA040222F000700C6A40EA04021868AF
:10295000426400BF002083F83C0000BF00BFB2E724
:10296000000001400004014030B502460B4600BFA4
:1029700092F83C00012801D1022030BD012082F8EC
:102980003C0000BF022082F83D00106841681068DA
:102990008468214D1068A84203D0204D1068A842D9
:1029A00003D121F470015868014321F070011868C7
:1029B000014310684160184D1068A8421BD0106890
:1029C000B0F1804F17D0164D1068A84213D0154DA6
:1029D0001068A8420FD0144D1068A8420BD00F4DBC
:1029E0001068A84207D0114D1068A84203D0104DBE
:1029F0001068A84205D124F0800498680443106848
:102A00008460012082F83D0000BF002082F83C0075
:102A100000BF00BFB1E7000000000140000401401A
:102A20000004004000080040000C0040004001404D
:102A30000018004010B504460CB9012010BD94F8F0
:102A40003D0028B9002084F83C00204600F02AF818
:102A5000022084F83D00211D206803F047F8012082
:102A600084F8480000BF84F83E0001213F20015552
:102A70004020015541200155422001554320015578
:102A800000BF00BF012084F84400452001554620C6
:102A900001554720015500BF012084F83D0000206A
:102AA000CCE7000038B504462A49206888420DD199
:102AB00000BF2948006840F0010027490860084627
:102AC000006800F00100009000BF42E02068B0F113
:102AD000804F0FD100BF2048001F006840F0010068
:102AE0001D49091F08600846006800F001000090B9
:102AF00000BF2EE019492068884218D100BF16484F
:102B0000001F006840F010001349091F08600846C4
:102B1000006800F01000009000BF00BF00220221FA
:102B20003620FEF7D3FE3620FEF7C0FE11E00C493A
:102B3000206888420DD100BF0748006840F00200BD
:102B4000054908600846006800F00200009000BFD8
:102B500000BF38BD00000140443802400010004072
:102B600000040140014691F83D00012801D00120F8
:102B70007047022081F83D000868C06840F00100FD
:102B80000B68D8601C4B086898421BD00868B0F1ED
:102B9000804F17D0194B0868984213D0184B08681B
:102BA00098420FD0174B086898420BD0164B086814
:102BB000984207D0154B0868984203D0144B086818
:102BC000984210D108688068124B00EA0302062A76
:102BD0000FD0B2F5803F0CD00868006840F00100CB
:102BE0000B68186005E00868006840F001000B6899
:102BF00018600020BCE70000000001400004004015
:102C000000080040000C004000040140004001406A
:102C100000180040070001002DE9F04104460D4670
:102C2000002700BF94F83C00012802D10220BDE833
:102C3000F081012084F83C0000BF022084F83D00B0
:102C4000206886683748064026F47F4620688660FC
:102C50002868502833D00CDC202850D004DC002811
:102C60004BD0102851D149E0302849D040284CD1D0
:102C700039E060282DD0702807D0B0F5805F03D0F0
:102C8000B0F5005F41D10DE041E0D5E902136A687B
:102C9000206802F0A8FF2068866846F07706206862
:102CA000866034E0D5E902136A68206802F09BFF71
:102CB0002068806840F480402168886027E0EA68E6
:102CC0006968206803F032F95021206802F0EEFFB5
:102CD0001DE0EA686968206803F084F960212068D3
:102CE00002F0E4FF13E0EA686968206803F01EF967
:102CF0004021206802F0DAFF09E000BF00BF00BFFA
:102D00002968206802F0D2FF01E0012700BF00BF60
:102D1000012084F83D0000BF002084F83C0000BF83
:102D2000384684E788FFFEFF10B52DED108B84B088
:102D300004463D480068401C3B4908603B49206808
:102D400088420BD1207F012802D102F03BFB14E026
:102D5000207F042811D102F0E3FC0EE03449206802
:102D600088420AD1207F012802D101F07FFF04E0D0
:102D7000207F042801D102F027F92E480068401C6A
:102D80002C49086008460068B0F5C87F47D100208C
:102D900008602949086AFDF700FC21F0004141EC78
:102DA0001C0B2649086AFDF7F8FB21F0004141ECB5
:102DB0001E0B2349086AFDF7F0FB21F00041CDE925
:102DC00002012049086AFDF7E8FB21F00041CDE946
:102DD00000019DED020B53EC102B9DED000B51EC0F
:102DE000100BFDF752FA53EC1E2BFDF74EFA53EC85
:102DF0001C2BFDF74AFA9FED140B53EC102BFDF73B
:102E00005DFB41EC190B12480068FDF7C6FB53EC63
:102E1000192BFDF73AFAFDF7DEFB0D49086004B007
:102E2000BDEC108B10BD0000A0000020000C004085
:102E300000040040A40000204C09002028090020C4
:102E400004090020E00800200000000000001040FD
:102E5000180000202DE9F04104460D4616460027D3
:102E600000BF94F83C00012802D10220BDE8F081A7
:102E7000012084F83C0000BF96B9EB68D5E9001248
:102E8000206803F067F82068806920F00C00216852
:102E9000886120688069A96808432168886141E0E9
:102EA000042E13D1EB68D5E90012206803F0AEF8C8
:102EB0002068806920F4406021688861206880690A
:102EC000A96840EA0120216888612BE0082E12D110
:102ED000EB68D5E90012206803F0B5F82068C069F6
:102EE00020F00C002168C8612068C069A968084307
:102EF0002168C86116E00C2E13D1EB68D5E90012E9
:102F0000206803F0BCF82068C06920F440602168A4
:102F1000C8612068C069A96840EA01202168C861C9
:102F200000E0012700BF002084F83C0000BF3846C5
:102F30009CE710B504460CB9012010BD94F83D0083
:102F400028B9002084F83C00204600F029F802202F
:102F500084F83D00211D206802F0C8FD012084F89E
:102F6000480000BF84F83E0001213F200155402069
:102F7000015541200155422001554320015500BF14
:102F800000BF012084F8440045200155462001552A
:102F90004720015500BF012084F83D000020CCE708
:102FA00010B586B00446142101A8FDF763F9454920
:102FB000206888424DD100BF4348006840F00200BD
:102FC000414908600846006800F00200009000BF18
:102FD00000BF00BF3C481038006840F001003A498B
:102FE000103908600846006800F00100009000BF3A
:102FF00000BF00BF0846006840F0020008600846B5
:10300000006800F00200009000BF00BF4020019067
:10301000022002900390002004900220059001A954
:103020002A48FEF7D1FA01200190022002900020E8
:10303000039004900220059001A92548FEF7C4FAE8
:10304000002202211D20FEF741FC1D20FEF72EFC70
:1030500036E020492068884232D100BF1A48006813
:1030600040F00800184908600846006800F00800B1
:10307000009000BF00BF00BF13481038006840F048
:1030800001001149103908600846006800F001008D
:10309000009000BF00BF0520019002200290039025
:1030A000002004900220059001A90848FEF78CFA40
:1030B000002202213220FEF709FC3220FEF7F6FB47
:1030C00006B010BD0004004040380240000002403D
:1030D00000040240000C00402DE9F04304460D4678
:1030E000002715B994F83E0015E0042D02D13F20C9
:1030F000005D10E0082D02D14020005D0BE00C2D9A
:1031000002D14120005D06E0102D02D14220005D79
:1031100001E04320005D804615B994F844000BE0BF
:10312000042D02D14520005D06E0082D02D1462085
:10313000005D01E04720005D8146B8F1010F02D13A
:10314000B9F1010F02D00120BDE8F0831DB90220C2
:1031500084F83E001AE0042D03D102213F200155DE
:1031600014E0082D03D10221402001550EE00C2D62
:1031700003D102214120015508E0102D03D1022185
:103180004220015502E00221432001551DB90220D1
:1031900084F844000EE0042D03D10221452001559E
:1031A00008E0082D03D102214620015502E002214A
:1031B0004720015535B1042D0BD0082D10D00C2D12
:1031C0001CD114E02068C06840F002002168C8608B
:1031D00016E02068C06840F004002168C8600FE075
:1031E0002068C06840F008002168C86008E02068D6
:1031F000C06840F010002168C86001E0012700BFEE
:1032000000BFA7BB01222946206802F0DBFC1C4955
:10321000206888421BD02068B0F1804F17D0194930
:103220002068884213D01849206888420FD0174977
:10323000206888420BD016492068884207D015497B
:103240002068884203D014492068884210D1206841
:103250008068124900EA0106062E0FD0B6F5803FBD
:103260000CD02068006840F001002168086005E08B
:103270002068006840F0010021680860384663E774
:10328000000001400004004000080040000C004025
:103290000004014000400140001800400700010008
:1032A00010B5044620680069C0F34000D8B120681A
:1032B000C068C0F34000B0B16FF00200216808613F
:1032C000012020772068806900F0030018B12046B3
:1032D000FFF72AFD05E0204600F050F9204600F0F7
:1032E0003EFA0020207720680069C0F38000D8B142
:1032F0002068C068C0F38000B0B16FF0040021689E
:103300000861022020772068806900F4407018B1BD
:103310002046FFF709FD05E0204600F02FF9204682
:1033200000F01DFA0020207720680069C0F3C0007B
:10333000D8B12068C068C0F3C000B0B16FF0080019
:1033400021680861042020772068C06900F003002C
:1033500018B12046FFF7E8FC05E0204600F00EF922
:10336000204600F0FCF90020207720680069C0F3B7
:103370000010D8B12068C068C0F30010B0B16FF081
:10338000100021680861082020772068C06900F4D7
:10339000407018B12046FFF7C7FC05E0204600F05A
:1033A000EDF8204600F0DBF9002020772068006966
:1033B00000F0010058B12068C06800F0010030B191
:1033C0006FF0010021680861204600F06BFA206868
:1033D0000069C0F3C01058B12068C068C0F3C010C5
:1033E00030B16FF08000216808612046FFF75FFA76
:1033F00020680069C0F3002058B12068C068C0F39D
:10340000C01030B16FF48070216808612046FFF76A
:103410004DFA20680069C0F3801058B12068C06878
:10342000C0F3801030B16FF0400021680861204681
:1034300000F065FA20680069C0F3401058B12068B8
:10344000C068C0F3401030B16FF0200021680861FF
:103450002046FFF72DFA10BD10B586B004461421A2
:1034600001A8FCF707FF3E49206888421CD100BF35
:103470003C48006840F010003A490860084600687F
:1034800000F01000009000BF00BF4FF4D440019046
:10349000022002900020039004900120059001A9D1
:1034A0003148FEF791F859E02068B0F1804F36D1ED
:1034B00000BF2C48006840F001002A490860084617
:1034C000006800F00100009000BF00BF00BF084688
:1034D000006840F0020008600846006800F0020042
:1034E000009000BF00BF2020019002200290002029
:1034F000039004900120059001A91C48FEF764F890
:1035000040F60840019002200290002003900490B1
:103510000120059001A91648FEF756F81EE015494E
:10352000206888421AD100BF0E48006840F00400AD
:103530000C4908600846006800F00400009000BFD5
:1035400000BF881501900220029000200390049093
:103550000320059001A90848FEF736F806B010BD13
:1035600000000140303802400010024000000240DC
:1035700000040240000401400008024070472DE9A9
:10358000F04104460D461646002700BF94F83C0063
:10359000012802D10220BDE8F081012084F83C001E
:1035A00000BF0C2E51D005DC4EB1042E1ED0082ECB
:1035B0007AD133E0102E60D0142EF9D175E029466F
:1035C000206802F07DFB2068806940F008002168D7
:1035D00088612068806920F0040021688861206883
:1035E0008069296908432168886178E02946206854
:1035F00002F0A0FB2068806940F4006021688861C7
:103600002068806920F48060216888612068806972
:10361000296940EA01202168886160E02946206824
:1036200002F0C8FB2068C06940F008002168C8614A
:103630002068C06920F004002168C8612068C06962
:10364000296908432168C86149E02946206802F0D9
:10365000EFFB2068C06940F400602168C861206801
:10366000C06920F480602168C8612068C069296948
:1036700040EA01202168C86131E02946206802F053
:1036800003FC2068406D40F0080021684865206810
:10369000406D20F00400216848652068406D29696C
:1036A0000843216848651AE017E02946206802F0BF
:1036B00013FC2068406D40F4006021684865206874
:1036C000406D20F48060216848652068406D29695C
:1036D00040EA01202168486501E0012700BF00BFE2
:1036E00000BF002084F83C0000BF384653E710B507
:1036F00004460CB9012010BD94F83D0028B9002003
:1037000084F83C00204600F029F8022084F83D00AF
:10371000211D206802F0EAF9012084F8480000BF6A
:1037200084F83E0001213F200155402001554120F1
:103730000155422001554320015500BF00BF012023
:1037400084F8440045200155462001554720015585
:1037500000BF012084F83D000020CCE7704770478F
:1037600070B504460D4615B994F83E0015E0042DD9
:1037700002D13F20005D10E0082D02D14020005D05
:103780000BE00C2D02D14120005D06E0102D02D18E
:103790004220005D01E04320005D012801D00120AE
:1037A00070BD1DB9022084F83E001AE0042D03D13B
:1037B00002213F20015514E0082D03D102214020B1
:1037C00001550EE00C2D03D102214120015508E0E6
:1037D000102D03D102214220015502E00221432095
:1037E000015501222946206802F0ECF9254920689C
:1037F000884203D024492068884201D1012000E09A
:10380000002028B12068406C40F4004021684864E2
:103810001C49206888421BD02068B0F1804F17D027
:103820001A492068884213D01949206888420FD06D
:103830001849206888420BD013492068884207D075
:1038400015492068884203D014492068884210D165
:1038500020688068124900EA0106062E0FD0B6F5EE
:10386000803F0CD02068006840F0010021680860AB
:1038700005E02068006840F0010021680860002031
:103880008EE70000000001400004014000040040F9
:1038900000080040000C00400040014000180040BB
:1038A0000700010000B5024606491068884201D1B0
:1038B00001F040FD04491068884201D102F0E6F8A9
:1038C00000BD000000040040000C00400246002043
:1038D00031B1042907D0082908D00C290CD108E0FF
:1038E0001368586B09E01368986B06E01368D86B8F
:1038F00003E01368186C00E000BF00BF704770471A
:10390000704770470146CB6FD1F8802043EA020030
:10391000704700002DE9F04704462068C56920681B
:1039200006682068876840F60F0005EA0009B9F1CB
:10393000000F0CD105F0200048B106F0200030B196
:10394000A06E10B12046A16E8847BDE8F087B9F19E
:10395000000F7DD007F0010018B9B94830400028A9
:10396000F7D005F0010058B106F4807040B1012095
:1039700021680862D4F8840040F00100C4F8840093
:1039800005F0020058B107F0010040B102202168A3
:103990000862D4F8840040F00400C4F8840005F004
:1039A000040058B107F0010040B10420216808620A
:1039B000D4F8840040F00200C4F8840005F0080048
:1039C00070B106F0200010B907F0010040B10820E6
:1039D00021680862D4F8840040F00800C4F884002C
:1039E00005F4006060B106F0806048B14FF40060FB
:1039F00021680862D4F8840040F02000C4F88400F4
:103A0000D4F8840000284BD005F0200038B106F02F
:103A1000200020B1A06E10B12046A16E8847D4F8D6
:103A200084A02068806800F04000402802D00AF09E
:103A3000280070B3204602F037FC2068806800F050
:103A40004000402821D100BF00BF2168083100E0BC
:103A500027E051E8001F21F040002168083141E8CB
:103A60000002002AF1D100BF606F50B17548616F4C
:103A70000865606FFDF780FD90B1606F016D88474C
:103A80000EE02046FFF73DFF0AE02046FFF739FF32
:103A900006E0FFE72046FFF734FF0020C4F884006B
:103AA00053E7206E01286FD105F0100000286BD07D
:103AB00006F010000028FAD0102021680862206863
:103AC000806800F0400040285FD1606F0068406867
:103AD0001FFA80F8B8F1000F55D0B4F858004045EF
:103AE00051DDA4F85A80606FC069B0F5807F3FD087
:103AF00000BF00BF216851E8001F21F480702268D8
:103B000042E800010029F5D100BF00BF00BF2168D5
:103B1000083151E8001F21F001002168083141E817
:103B20000002002AF3D100BF00BF00BF21680831A6
:103B300051E8001F21F040002168083141E80002EF
:103B4000002AF3D100BF2020C4F8800000202066A6
:103B500000BF00BF216851E8001F21F0100022685B
:103B600042E800010029F5D100BF606FFDF7AEFC0F
:103B700002206066B4F85800B4F85A20801A81B266
:103B80002046FFF7BDFEE0E641E034F8580F6188BB
:103B9000401A1FFA80F86088583CB8B3B8F1000F9B
:103BA00034D000BF00BF216851E8001F21F490709D
:103BB000226842E800010029F5D100BF00BF00BF24
:103BC0002168083151E8001F21F001002168083107
:103BD00041E80002002AF3D100BF2020C4F8800091
:103BE00000202066A06600BF00BF216851E8001FCA
:103BF00021F01000226842E800010029F5D100BF41
:103C00000220606641462046FFF77AFE9DE605F0F9
:103C1000800040B106F0800028B1E06E10B120466F
:103C2000E16E884791E605F0400030B106F04000B3
:103C300018B1204602F06BFB87E600BF85E6000066
:103C4000200100049162000810B504460CB901205F
:103C500010BDA06900B100E000BFE06F28B90020EE
:103C600084F87800204600F029F82420E0672068D6
:103C7000006820F0010021680860204602F030FC56
:103C8000012800D1E4E7606A10B1204602F05CFA36
:103C90002068406820F4904021684860206880686F
:103CA00020F02A00216888602068006840F0010048
:103CB00021680860204602F0C3FAC9E710B5A8B031
:103CC0000446142123A8FCF7D5FA842102A8FCF7A6
:103CD000D1FADA492068884259D1001502900020B3
:103CE000179002A8FDF78CFE08B1FDF792FB00BF0C
:103CF000D348006840F48010D14908600846006845
:103D000000F48010019000BF00BF00BFCC48103805
:103D1000006840F00400CA4910390860084600688D
:103D200000F00400019000BF00BF00BF084600681B
:103D300040F0080008600846006800F008000190A4
:103D400000BF00BF881423900220249000202590FB
:103D5000032026900820279023A9BA48FDF734FCB9
:103D600004202390022024900020259003202690F8
:103D70000820279023A9B448FDF726FC0022012142
:103D80003520FDF7A3FD3520FDF790FD54E1AF4947
:103D9000206888423FD1801402900020199002A828
:103DA000FDF72EFE08B1FDF734FB00BFA448006804
:103DB00040F08040A24908600846006800F080405A
:103DC000019000BF00BF00BF9D481038006840F060
:103DD00010009B49103908600846006800F0100088
:103DE000019000BF00BF4FF4C070239002202490C8
:103DF00000202590032026900820279023A994488E
:103E0000FDF7E2FB002211465220FDF75FFD522034
:103E1000FDF74CFD10E18F49206888423ED14014E7
:103E2000029000201A9002A8FDF7EAFD08B1FDF704
:103E3000F0FA00BF8248006840F000408049086006
:103E40000846006800F00040019000BF00BF00BFBE
:103E50007B481038006840F010007949103908603C
:103E60000846006800F01000019000BF00BF03206A
:103E700023900220249000202590032026900820E3
:103E8000279023A97248FDF79FFB0022114653207B
:103E9000FDF71CFD5320FDF709FDCDE06E492068BC
:103EA000884241D1402002900020139002A8FDF7E3
:103EB000A7FD08B1FDF7ADFA00BF6148001D00681D
:103EC00040F010005E49091D08600846006800F0D7
:103ED0001000019000BF00BF00BF594810380068B3
:103EE00040F001005649103908600846006800F0AB
:103EF0000100019000BF00BF4FF4C060239002207A
:103F0000249000202590032026900720279023A9A5
:103F10005248FDF759FB002202212520FDF7D6FC6F
:103F20002520FDF7C3FC87E04D49206888423FD13A
:103F3000801502900020159002A8FDF761FD08B1E0
:103F4000FDF767FA00BF3E48006840F480203C4916
:103F500008600846006800F48020019000BF00BFA0
:103F600000BF37481038006840F004003449103969
:103F700008600846006800F00400019000BF00BF20
:103F80004FF44060239002202490002025900320CD
:103F900026900720279023A92A48FDF715FB002229
:103FA00011462720FDF792FC2720FDF77FFC43E018
:103FB0002C49206888423FD1C014029000201890FC
:103FC00002A8FDF71DFD08B1FDF723FA00BF1C484C
:103FD000001D006840F020001949091D08600846CE
:103FE000006800F02000019000BF00BF00BF14482F
:103FF0001038006840F00400114910390860084684
:10400000006800F00400019000BF00BFC0202390B2
:10401000022024900020259003202690082027903D
:1040200023A90848FDF7D0FA002201214720FDF717
:104030004DFC4720FDF73AFC28B010BD0050004071
:104040004038024000080240000C02400078004066
:1040500000100240007C00400010014000000240BF
:10406000004800400014014070B504460D46164655
:10407000D4F8800020281DD105B10EB9012070BDF3
:10408000002020662068406800F4000060B100BF96
:1040900000BF216851E8001F41F08060226842E8BB
:1040A00000010029F5D100BF32462946204602F022
:1040B000B5FBE4E70220E2E710B504463349206887
:1040C000884236D13248008800F4004088BB30482E
:1040D000008800F4804070B12E4800780A2803D090
:1040E00000202B49088024E02948008840F4004043
:1040F000274908801DE0274800780D2806D124486C
:10410000008840F480402249088012E0214800786D
:104110001F490988C1F30D011F4A50541C480088EB
:10412000401C1B49088008460088C72801DD002084
:1041300008801A49206809680968884202D117482E
:1041400006F0FAFE16492068884212D11548807997
:1041500015490978884203D013480078114908713D
:10416000104800790F49887101220F490F48FFF765
:104170007BFF0F492068884207D10E48FDF790F970
:1041800005220D490D48FFF76FFF10BD00100140DB
:104190000400002006000020E8040020F40A0020AB
:1041A00000780040F80200200200002038060020BD
:1041B00000480040E8020020F0020020D007002064
:1041C0002DE9F84F04460E4617469946E06F202821
:1041D0004DD106B117B90120BDE8F88F0020503449
:1041E00060632120E062FDF7FDFA82462780678048
:1041F000503CA068B0F5805F04D1206910B900255B
:10420000B04602E035464FF000081DE0534600225C
:1042100080212046CDF8009002F07AFB08B10320FF
:10422000DAE745B9B8F80000C0F3080021688862F1
:1042300008F1020803E02878216888626D1CB4F850
:104240005200401EA4F85200B4F852000028DDD1FC
:104250005346002240212046CDF8009002F058FB42
:1042600008B10320B8E72020E0670020B4E702206F
:10427000B2E7704700BFFEE700B587B0142102A87F
:10428000FBF7F8FF00BF5548006840F010005349A5
:1042900008600846006800F01000019000BF00BFF1
:1042A00000BF0846006840F0040008600846006847
:1042B00000F00400019000BF00BF00BF0846006886
:1042C00040F0800008600846006800F0800001901F
:1042D00000BF00BF00BF0846006840F00100086052
:1042E0000846006800F00100019000BF00BF00BF59
:1042F0000846006840F0020008600846006800F0C8
:104300000200019000BF00BF00BF0846006840F0F7
:10431000080008600846006800F00800019000BF2F
:1043200000BF78200290002003900220049002A990
:104330002B48FDF749F94FF4C0400290002003904C
:104340000220049002A92748FDF73EF948F23E20DA
:10435000029000200390049002A92248FDF734F94E
:104360004FF41440029000200390049002A91C48CE
:10437000FDF72AF94FF4704002900020039004905A
:1043800002A91948FDF720F94CF29B700290002019
:104390000390049002A91548FDF716F94FF4014067
:1043A000029000200390049002A91148FDF70CF937
:1043B00020200290002003900220049002A90B48C4
:1043C000FDF702F9102002900020039001200490D4
:1043D00002A90548FDF7F8F807B000BD30380240E3
:1043E000001002400008024000040240000C02409D
:1043F0000000024000B599B000201590169017906B
:1044000018901290139014901C210BA8FBF732FF08
:104410002C216846FBF72EFF3A483B490860D7201D
:10442000486000213848816042F20F71C16000216C
:10443000016141618161FEF7FDFA08B1FCF7E9FF16
:104440004FF48050159015A92F48FEF7E5FB08B1F1
:10445000FCF7DFFF2C48FFF74AF908B1FCF7D9FF5A
:10446000002012901390149012A92748FEF77CFAAE
:1044700008B1FCF7CEFF60200B9000200C900D904F
:104480000E900F901090119000220BA91E48FFF77C
:1044900076F808B1FCF7BDFF04220BA91A48FFF714
:1044A0006EF808B1FCF7B5FF08220BA91648FFF714
:1044B00066F808B1FCF7ADFF0C220BA91248FFF714
:1044C0005EF808B1FCF7A5FF002000900190029073
:1044D000039004904FF40050059000200690079040
:1044E0004FF000700890002009900A906946064835
:1044F000FEF7E0F908B1FCF78CFF0348FEF7ACFFCC
:1045000019B000BD000001402003002000B58FB0AD
:1045100000200B900C900D900E90089009900A903E
:104520001C2101A8FBF7A6FE4FF080402B49086034
:10453000D720486000212948816042F20F71C16094
:10454000002101618161FEF775FA08B1FCF761FF96
:104550004FF480500B900BA92048FEF75DFB08B18B
:10456000FCF757FF1D48FFF7C2F808B1FCF751FFF1
:10457000002008900A9008A91848FEF7F5F908B13C
:10458000FCF747FF60200190002002900390059007
:10459000002201A91148FEF7F2FF08B1FCF739FF2C
:1045A000042201A90D48FEF7EAFF08B1FCF731FF2C
:1045B000082201A90948FEF7E2FF08B1FCF729FF2C
:1045C0000C2201A90548FEF7DAFF08B1FCF721FF2C
:1045D0000248FEF741FF0FB000BD00006C03002051
:1045E00000B587B0002004900590069000900190DF
:1045F000029003901B481C4908606B204860002112
:10460000194881604FF6FF71C1600021016180216E
:104610008161FEF78EFC08B1FCF7FBFE00200490E0
:10462000069004A91048FEF79FF908B1FCF7F1FEC7
:1046300000200090012001900020029003900022B1
:1046400069460948FEF706FC08B1FCF7E2FE0822BD
:1046500069460548FEF7FEFB08B1FCF7DAFE07B035
:1046600000BD000000040040B803002000B587B082
:104670000020049005900690009001900290039015
:104680001B481C4908606B20486000211948816064
:104690004FF6FF71C1600021016180218161FEF749
:1046A00048FC08B1FCF7B5FE00200490069004A970
:1046B0001048FEF759F908B1FCF7ABFE0020009056
:1046C00001200190002002900390002269460948D1
:1046D000FEF7C0FB08B1FCF79CFE082269460548BE
:1046E000FEF7B8FB08B1FCF794FE07B000BD000070
:1046F000000C0040040400200EB500200090019042
:1047000002900E480E4908606B20486000210C485A
:10471000816042F21071C16080218161FEF78AF9E7
:1047200008B1FCF776FE002000900290694604482C
:10473000FEF71AF908B1FCF76CFE0EBD0010004040
:104740005004002000B599B00020159016901790E5
:1047500018901290139014901C210BA8FBF78AFD5F
:104760002C216846FBF786FD2F4830490860D7208A
:10477000486000212D48816042F20F71C160002124
:104780000161416180218161FEF754F908B1FCF7B4
:1047900040FE4FF48050159015A92448FEF73CFACE
:1047A00008B1FCF736FE2148FEF7A1FF08B1FCF77F
:1047B00030FE002012901390149012A91B48FEF7AF
:1047C000D3F808B1FCF725FE60200B9000200C9078
:1047D0000D900E900F901090119008220BA9134885
:1047E000FEF7CDFE08B1FCF714FE0020009001900A
:1047F0000290039004904FF4005005900020069022
:1048000007904FF000700890002009900A906946C8
:104810000648FEF74FF808B1FCF7FBFD0348FEF72A
:104820001BFE19B000BD0000000401409C040020E4
:1048300010B50D480D4908604FF4E1304860002183
:104840000A488160C16001610C21416100218161E0
:10485000C16101620020054948620846FFF7F4F98A
:1048600008B1FCF7D6FD10BD00500040B005002097
:1048700010B50D480D4908604FF4E1304860002143
:104880000A488160C16001610C21416100218161A0
:10489000C16101620020054948620846FFF7D4F96A
:1048A00008B1FCF7B6FD10BD0078004038060020C6
:1048B00010B50D480D4908604FF4165048600021AE
:1048C0000A488160C16001610C2141610021816160
:1048D000C16101620020054948620846FFF7B4F94A
:1048E00008B1FCF796FD10BD007C0040C00600201A
:1048F00010B50D480D4908604FF4E13048600021C3
:104900000A488160C16001610C214161002181611F
:10491000C16101620020054948620846FFF794F929
:1049200008B1FCF776FD10BD0010014048070020DB
:1049300010B50D480D4908604FF4E1304860002182
:104940000A488160C16001610C21416100218161DF
:10495000C16101620020054948620846FFF774F909
:1049600008B1FCF756FD10BD00480040D0070020FC
:1049700010B50D480D4908604FF4E1304860002142
:104980000A488160C16001610C214161002181619F
:10499000C16101620020054948620846FFF754F9E9
:1049A00008B1FCF736FD10BD001401405808002086
:1049B00000BFFEE700BFFEE77047000010B586B0FD
:1049C00002460120234B1B78002B40DD224B1B7835
:1049D000012B3CD10023204C2370002105E01F4B0C
:1049E0005B5C0DF801304B1CD9B21629F7DB9DF842
:1049F0001530CE2B1DD19DF80430D3B99DF8003071
:104A0000042B16D19DF80130162B12D19DF80230DF
:104A1000032B0ED19DF80330202B0AD1002105E095
:104A20004B1D1DF8033053544B1CD9B21029F7DB32
:104A30000020002104E00023084C63544B1CD9B231
:104A4000044B1B789942F6DB0023024C237006B01E
:104A500010BD0000DC020020DD020020C20B00209F
:104A6000704740F27E410181416821B901890268A5
:104A70001268516323E04168042904D10189026866
:104A8000126891631BE04168082904D1018902681A
:104A90001268D16313E041680C2904D101890268CE
:104AA000126811640BE04168102904D10189026881
:104AB0001268916503E0018902681268D165704748
:104AC00040F23A710181416821B901890268126896
:104AD000516323E04168042904D101890268126806
:104AE00091631BE04168082904D1018902681268BA
:104AF000D16313E041680C2904D10189026812686E
:104B000011640BE04168102904D101890268126820
:104B1000916503E0018902681268D165704740F22F
:104B2000DC510181416821B9018902681268516331
:104B300023E04168042904D1018902681268916365
:104B40001BE04168082904D1018902681268D16319
:104B500013E041680C2904D10189026812681164CC
:104B60000BE04168102904D101890268126891653F
:104B700003E0018902681268D165704710B50446E8
:104B8000054820600820606000202081D4E90001F1
:104B9000FEF7E6FD10BD00009C04002010B5FCF7F8
:104BA00027FE10BD00B593B0302107A8FBF762FBCC
:104BB000142102A8FBF75EFB00BF2548006840F007
:104BC0008050234908600846006800F0805001903A
:104BD00000BF00BF00BF1F48006840F440401D49AF
:104BE00008600846006800F44040019000BF00BF24
:104BF000012007900004089002200D9041050E91BD
:104C000004210F91D821109102211191129107A82E
:104C1000FDF7B0FB08B1FCF7FCFBFCF7A9FE08B1FF
:104C2000FCF7F7FB0F200290022003900020049075
:104C30004FF4A05005904FF480500690072102A831
:104C4000FDF750FA08B1FCF7E4FB13B000BD00001B
:104C500040380240007000400348006840F4700093
:104C6000014908607047000088ED00E010B52DEDA7
:104C7000028BC848007800287BD1C749C8830A4600
:104C800051691069FEF722FEC44908600120C1493C
:104C90000870C14A918B9069FCF79CFD18B9FF2000
:104CA000BF49087002E00120BD49087000BFBA4842
:104CB000406950B9B84800690068006A20F00A00ED
:104CC000B54909690968086227E0B34840690428C2
:104CD0000AD1B14800690068006A20F0A000AE491E
:104CE00009690968086218E0AB48406908280AD1D8
:104CF000A94800690068006A20F42060A649096993
:104D00000968086209E0A44800690068006A20F4A4
:104D10002040A1490969096808629F48406950B963
:104D20009D4800690068006A40F002009A490969DC
:104D30000968086228E09848406904280AD1964822
:104D400000690068006A40F0200093490969096819
:104D5000086219E09048406908280BD18E48006924
:104D60000068006A40F400708B49096909680862AC
:104D70000AE00AE0884800690068006A40F40050D0
:104D8000854909690968086201E1834A5169106926
:104D9000FEF79CFD834908607F48C08B78B90846C0
:104DA00000687E490968401A4CF25031B1FBF0F0BE
:104DB0007B4991F9001048437B4908602FE0764811
:104DC000C08B012812D1754800684FF6FF71081A90
:104DD0007449096808444CF25031B1FBF0F0704955
:104DE00091F9001048437049086018E06B4800686A
:104DF0004FF6FF71091A6848C08B401E4FF6FF72CC
:104E000002FB00106749096808444CF25031B1FBBD
:104E1000F0F0634991F90010484363490860634822
:104E20000068614909680844604908606048006892
:104E3000401C5F4908600846006804283ED10020F5
:104E400008605C4800685C4908605C48007870B99C
:104E500056490968584A12688818C11700EB9171C1
:104E60008910544A11600120544908700DE04F49DF
:104E700009684D4A1268891A4F4A12688818C11782
:104E800000EB917189104B4A11604A4909684A4AFE
:104E900012688818FBF781FB21F000419FED480B59
:104EA00053EC102BFBF7CAFB03D3424800683A4986
:104EB000086200203E4908603C49086000BF36484F
:104EC000406950B9344800690068006A20F00A005F
:104ED000314909690968086227E02F4840690428B8
:104EE0000AD12D4800690068006A20F0A0002A4914
:104EF00009690968086218E02748406908280AD14A
:104F0000254800690068006A20F420602249096988
:104F10000968086209E0204800690068006A20F416
:104F200020401D490969096808621B48406940B969
:104F3000194800690068006A174909690968086228
:104F400021E015484069042808D113480069006829
:104F5000006A114909690968086214E00E4840694D
:104F6000082808D10C4800690068006A0A490969E4
:104F70000968086207E0084800690068006A064995
:104F800009690968086200BF002002490870BDEC89
:104F9000028B10BD5E000020280900206000002068
:104FA0007C000020640000206C00002068000020CD
:104FB0007800002070000020740000207D00002098
:104FC000000000000000144010B52DED028BC84811
:104FD000007800287BD1C749C8830A465169106907
:104FE000FEF774FCC44908600120C1490870C14A39
:104FF000918B9069FCF7EEFB18B9FF20BF49087050
:1050000002E00120BD49087000BFBA48406950B9AC
:10501000B84800690068006A20F00A00B5490969CB
:105020000968086227E0B348406904280AD1B148FA
:1050300000690068006A20F0A000AE4909690968AB
:10504000086218E0AB48406908280AD1A9480069FD
:105050000068006A20F42060A649096909680862AE
:1050600009E0A44800690068006A20F42040A149D2
:105070000969096808629F48406950B99D480069FC
:105080000068006A40F002009A49096909680862EC
:1050900028E09848406904280AD1964800690068C9
:1050A000006A40F02000934909690968086219E024
:1050B0009048406908280BD18E4800690068006A52
:1050C00040F400708B490969096808620AE00AE047
:1050D000884800690068006A40F400508549096901
:1050E0000968086201E1834A51691069FEF7EEFB25
:1050F000834908607F48C08B78B9084600687E49BC
:105100000968401A4CF25031B1FBF0F07B4991F93B
:10511000001048437B4908602FE07648C08B012887
:1051200012D1754800684FF6FF71081A7449096872
:1051300008444CF25031B1FBF0F0704991F9001085
:1051400048437049086018E06B4800684FF6FF71EB
:10515000091A6848C08B401E4FF6FF7202FB001010
:105160006749096808444CF25031B1FBF0F06349DB
:1051700091F9001048436349086063480068614939
:10518000096808446049086060480068401C5F493D
:1051900008600846006804283ED1002008605C488A
:1051A00000685C4908605C48007870B95649096835
:1051B000584A12688818C11700EB91718910544A37
:1051C00011600120544908700DE04F4909684D4AAB
:1051D0001268891A4F4A12688818C11700EB91713A
:1051E00089104B4A11604A4909684A4A126888186E
:1051F000FBF7D3F921F000419FED480B53EC102B46
:10520000FBF71CFA03D3424800683A4908620020C1
:105210003E4908603C49086000BF3648406950B9C3
:10522000344800690068006A20F00A0031490969C1
:105230000968086227E02F48406904280AD12D48F0
:1052400000690068006A20F0A0002A49096909681D
:10525000086218E02748406908280AD125480069F3
:105260000068006A20F42060224909690968086220
:1052700009E0204800690068006A20F420401D49C8
:105280000969096808621B48406940B91948006902
:105290000068006A174909690968086221E0154831
:1052A0004069042808D1134800690068006A114960
:1052B00009690968086214E00E484069082808D1A5
:1052C0000C4800690068006A0A49096909680862AF
:1052D00007E0084800690068006A0649096909682A
:1052E000086200BF002002490870BDEC028B10BDAF
:1052F0007E0000204C090020800000209C0000203F
:10530000840000208C0000208800002098000020ED
:1053100090000020940000209D000020000000006C
:105320000000144010B50248FDF7BAFF10BD0000A0
:10533000B80300201048C08B4FF6FF71884205DA91
:105340000D48C08B401C0C49C88303E000200A496B
:10535000C88308620948C08B4FF6FF71884205DA9E
:105360000648C08B401C0549C88303E00020034960
:10537000C883086270470000280900204C090020FB
:1053800010B50E480068C06800F0010078B10C4903
:1053900008698047002009490968486200BF642005
:1053A00006490968C86264210448C16000BF6FF003
:1053B000010002490968086110BD0000A80A002028
:1053C0008C01002010B52DED028BC8480078002814
:1053D0007BD1C749C8830A4651691069FEF776FA3E
:1053E000C44908600120C1490870C14A918B906985
:1053F000FCF7F0F918B90120BF49087002E0FF205E
:10540000BD49087000BFBA48406950B9B848006942
:105410000068006A20F00A00B54909690968086255
:1054200027E0B348406904280AD1B1480069006800
:10543000006A20F0A000AE4909690968086218E016
:10544000AB48406908280AD1A94800690068006A89
:1054500020F42060A64909690968086209E0A448A7
:1054600000690068006A20F42040A14909690968C0
:1054700008629F48406950B99D4800690068006A09
:1054800040F002009A4909690968086228E09848D2
:10549000406904280AD1964800690068006A40F013
:1054A0002000934909690968086219E09048406939
:1054B00008280BD18E4800690068006A40F400702B
:1054C0008B490969096808620AE00AE088480069AE
:1054D0000068006A40F4005085490969096808625B
:1054E00001E1834A51691069FEF7F0F983490860C8
:1054F0007F48C08B78B9084600687E490968401A21
:105500004CF25031B1FBF0F07B4991F90010484367
:105510007B4908602FE07648C08B012812D175487E
:1055200000684FF6FF71081A7449096808444CF284
:105530005031B1FBF0F0704991F9001048437049C7
:10554000086018E06B4800684FF6FF71091A684858
:10555000C08B401E4FF6FF7202FB001067490968BE
:1055600008444CF25031B1FBF0F0634991F900105E
:105570004843634908606348006861490968084412
:105580006049086060480068401C5F490860084640
:10559000006804283ED1002008605C4800685C492F
:1055A00008605C48007870B956490968584A126822
:1055B0008818C11700EB91718910544A11600120BD
:1055C000544908700DE04F4909684D4A1268891A1C
:1055D0004F4A12688818C11700EB917189104B4A25
:1055E00011604A4909684A4A12688818FAF7D5FFD3
:1055F00021F000419FED480B53EC102BFBF71EF8F8
:1056000003D3424800683A49086200203E490860D6
:105610003C49086000BF3648406950B934480069C9
:105620000068006A20F00A003149096909680862C7
:1056300027E02F48406904280AD12D4800690068F6
:10564000006A20F0A0002A4909690968086218E088
:105650002748406908280AD1254800690068006A7F
:1056600020F42060224909690968086209E020489D
:1056700000690068006A20F420401D490969096832
:1056800008621B48406940B9194800690068006A0F
:10569000174909690968086221E01548406904282A
:1056A00008D1134800690068006A1149096909684E
:1056B000086214E00E484069082808D10C480069C7
:1056C0000068006A0A4909690968086207E0084831
:1056D00000690068006A064909690968086200BF34
:1056E000002002490870BDEC028B10BD1C00002098
:1056F000E0080020200000203C00002024000020C2
:105700002C0000202800002038000020300000205D
:10571000340000203D000020000000000000144084
:1057200010B52DED028BC848007800287BD1C74901
:10573000C8830A4651691069FEF7C8F8C449086071
:105740000120C1490870C14A918B9069FCF742F869
:1057500018B90120BF49087002E0FF20BD49087058
:1057600000BFBA48406950B9B84800690068006A8B
:1057700020F00A00B54909690968086227E0B348C2
:10578000406904280AD1B14800690068006A20F025
:10579000A000AE4909690968086218E0AB48406991
:1057A00008280AD1A94800690068006A20F420602E
:1057B000A64909690968086209E0A4480069006807
:1057C000006A20F42040A1490969096808629F48DD
:1057D000406950B99D4800690068006A40F00200C5
:1057E0009A4909690968086228E0984840690428CC
:1057F0000AD1964800690068006A40F02000934989
:1058000009690968086219E09048406908280BD1C5
:105810008E4800690068006A40F400708B4909698D
:10582000096808620AE00AE0884800690068006ABE
:1058300040F40050854909690968086201E1834A1A
:1058400051691069FEF742F8834908607F48C08BB0
:1058500078B9084600687E490968401A4CF2503110
:10586000B1FBF0F07B4991F9001048437B49086097
:105870002FE07648C08B012812D1754800684FF69A
:10588000FF71081A7449096808444CF25031B1FBA1
:10589000F0F0704991F9001048437049086018E031
:1058A0006B4800684FF6FF71091A6848C08B401EAC
:1058B0004FF6FF7202FB00106749096808444CF27A
:1058C0005031B1FBF0F0634991F90010484363494E
:1058D00008606348006861490968084460490860D5
:1058E00060480068401C5F4908600846006804285A
:1058F0003ED1002008605C4800685C4908605C4854
:10590000007870B956490968584A12688818C11752
:1059100000EB91718910544A1160012054490870BC
:105920000DE04F4909684D4A1268891A4F4A1268BA
:105930008818C11700EB917189104B4A11604A49D0
:1059400009684A4A12688818FAF727FE21F00041D0
:105950009FED480B53EC102BFAF770FE03D342482F
:1059600000683A49086200203E4908603C490860E6
:1059700000BF3648406950B9344800690068006A81
:1059800020F00A00314909690968086227E02F48B8
:10599000406904280AD12D4800690068006A20F097
:1059A000A0002A4909690968086218E02748406987
:1059B00008280AD1254800690068006A20F42060A0
:1059C000224909690968086209E0204800690068FD
:1059D000006A20F420401D490969096808621B48D3
:1059E000406940B9194800690068006A17490969A7
:1059F0000968086221E015484069042808D1134865
:105A000000690068006A114909690968086214E0C0
:105A10000E484069082808D10C4800690068006AEF
:105A20000A4909690968086207E0084800690068CE
:105A3000006A064909690968086200BF0020024936
:105A40000870BDEC028B10BD3E0000200409002050
:105A5000400000205C000020440000204C0000209A
:105A60004800002058000020500000205400002072
:105A70005D000020000000000000144010B5024846
:105A8000FDF70EFC10BD0000040400201048C08B80
:105A90004FF6FF71884205DA0D48C08B401C0C4957
:105AA000C88303E000200A49C88308620948C08B04
:105AB0004FF6FF71884205DA0648C08B401C054945
:105AC000C88303E000200349C883086270470000D0
:105AD000E00800200409002010B500F08FF802480B
